{
  "contractName": "Remittance",
  "abi": [
    {
      "inputs": [
        {
          "internalType": "enum Stoppable.State",
          "name": "initialState",
          "type": "uint8"
        },
        {
          "internalType": "uint256",
          "name": "_maxDurationBlocks",
          "type": "uint256"
        },
        {
          "internalType": "uint256",
          "name": "_contractFeePercentage",
          "type": "uint256"
        }
      ],
      "stateMutability": "nonpayable",
      "type": "constructor"
    },
    {
      "anonymous": false,
      "inputs": [
        {
          "indexed": true,
          "internalType": "address",
          "name": "sender",
          "type": "address"
        },
        {
          "indexed": false,
          "internalType": "uint256",
          "name": "oldContractFeePercentage",
          "type": "uint256"
        },
        {
          "indexed": false,
          "internalType": "uint256",
          "name": "newContractFeePercentage",
          "type": "uint256"
        }
      ],
      "name": "LogContractFeePercentageChanged",
      "type": "event"
    },
    {
      "anonymous": false,
      "inputs": [
        {
          "indexed": true,
          "internalType": "address",
          "name": "sender",
          "type": "address"
        },
        {
          "indexed": false,
          "internalType": "uint256",
          "name": "amount",
          "type": "uint256"
        }
      ],
      "name": "LogFeesWithdrawn",
      "type": "event"
    },
    {
      "anonymous": false,
      "inputs": [
        {
          "indexed": true,
          "internalType": "bytes32",
          "name": "hashedPassword",
          "type": "bytes32"
        },
        {
          "indexed": true,
          "internalType": "address",
          "name": "origin",
          "type": "address"
        },
        {
          "indexed": false,
          "internalType": "uint256",
          "name": "amount",
          "type": "uint256"
        },
        {
          "indexed": false,
          "internalType": "uint256",
          "name": "deadline",
          "type": "uint256"
        },
        {
          "indexed": false,
          "internalType": "uint256",
          "name": "fee",
          "type": "uint256"
        }
      ],
      "name": "LogFundsDeposited",
      "type": "event"
    },
    {
      "anonymous": false,
      "inputs": [
        {
          "indexed": true,
          "internalType": "bytes32",
          "name": "hashedPassword",
          "type": "bytes32"
        },
        {
          "indexed": true,
          "internalType": "address",
          "name": "origin",
          "type": "address"
        },
        {
          "indexed": false,
          "internalType": "uint256",
          "name": "amount",
          "type": "uint256"
        }
      ],
      "name": "LogFundsReclaimed",
      "type": "event"
    },
    {
      "anonymous": false,
      "inputs": [
        {
          "indexed": true,
          "internalType": "bytes32",
          "name": "hashedPassword",
          "type": "bytes32"
        },
        {
          "indexed": true,
          "internalType": "address",
          "name": "receiver",
          "type": "address"
        },
        {
          "indexed": false,
          "internalType": "uint256",
          "name": "amount",
          "type": "uint256"
        }
      ],
      "name": "LogFundsWithdrawn",
      "type": "event"
    },
    {
      "anonymous": false,
      "inputs": [
        {
          "indexed": true,
          "internalType": "address",
          "name": "sender",
          "type": "address"
        },
        {
          "indexed": false,
          "internalType": "uint256",
          "name": "oldMaxDurationBlocks",
          "type": "uint256"
        },
        {
          "indexed": false,
          "internalType": "uint256",
          "name": "newMaxDurationBlocks",
          "type": "uint256"
        }
      ],
      "name": "LogMaxDurationChanged",
      "type": "event"
    },
    {
      "anonymous": false,
      "inputs": [
        {
          "indexed": true,
          "internalType": "address",
          "name": "oldOwner",
          "type": "address"
        },
        {
          "indexed": true,
          "internalType": "address",
          "name": "newOwner",
          "type": "address"
        }
      ],
      "name": "LogOwnerChanged",
      "type": "event"
    },
    {
      "anonymous": false,
      "inputs": [
        {
          "indexed": true,
          "internalType": "address",
          "name": "owner",
          "type": "address"
        }
      ],
      "name": "LogOwnershipRenounced",
      "type": "event"
    },
    {
      "anonymous": false,
      "inputs": [
        {
          "indexed": true,
          "internalType": "address",
          "name": "sender",
          "type": "address"
        },
        {
          "indexed": false,
          "internalType": "enum Stoppable.State",
          "name": "state",
          "type": "uint8"
        }
      ],
      "name": "LogStoppable",
      "type": "event"
    },
    {
      "inputs": [
        {
          "internalType": "address",
          "name": "newOwner",
          "type": "address"
        }
      ],
      "name": "changeOwner",
      "outputs": [
        {
          "internalType": "bool",
          "name": "success",
          "type": "bool"
        }
      ],
      "stateMutability": "nonpayable",
      "type": "function"
    },
    {
      "inputs": [
        {
          "internalType": "address",
          "name": "",
          "type": "address"
        }
      ],
      "name": "contractCollectedFees",
      "outputs": [
        {
          "internalType": "uint256",
          "name": "",
          "type": "uint256"
        }
      ],
      "stateMutability": "view",
      "type": "function"
    },
    {
      "inputs": [],
      "name": "contractFeePercentage",
      "outputs": [
        {
          "internalType": "uint256",
          "name": "",
          "type": "uint256"
        }
      ],
      "stateMutability": "view",
      "type": "function"
    },
    {
      "inputs": [],
      "name": "destroyContract",
      "outputs": [
        {
          "internalType": "bool",
          "name": "success",
          "type": "bool"
        }
      ],
      "stateMutability": "nonpayable",
      "type": "function"
    },
    {
      "inputs": [],
      "name": "getOwner",
      "outputs": [
        {
          "internalType": "address",
          "name": "ownersAddress",
          "type": "address"
        }
      ],
      "stateMutability": "view",
      "type": "function"
    },
    {
      "inputs": [],
      "name": "getState",
      "outputs": [
        {
          "internalType": "enum Stoppable.State",
          "name": "contractState",
          "type": "uint8"
        }
      ],
      "stateMutability": "view",
      "type": "function"
    },
    {
      "inputs": [],
      "name": "maxDurationBlocks",
      "outputs": [
        {
          "internalType": "uint256",
          "name": "",
          "type": "uint256"
        }
      ],
      "stateMutability": "view",
      "type": "function"
    },
    {
      "inputs": [],
      "name": "pauseContract",
      "outputs": [
        {
          "internalType": "bool",
          "name": "success",
          "type": "bool"
        }
      ],
      "stateMutability": "nonpayable",
      "type": "function"
    },
    {
      "inputs": [
        {
          "internalType": "bytes32",
          "name": "",
          "type": "bytes32"
        }
      ],
      "name": "remittanceStructs",
      "outputs": [
        {
          "internalType": "address",
          "name": "origin",
          "type": "address"
        },
        {
          "internalType": "uint256",
          "name": "amount",
          "type": "uint256"
        },
        {
          "internalType": "uint256",
          "name": "deadline",
          "type": "uint256"
        }
      ],
      "stateMutability": "view",
      "type": "function"
    },
    {
      "inputs": [],
      "name": "resumeContract",
      "outputs": [
        {
          "internalType": "bool",
          "name": "success",
          "type": "bool"
        }
      ],
      "stateMutability": "nonpayable",
      "type": "function"
    },
    {
      "inputs": [
        {
          "internalType": "address",
          "name": "exchange",
          "type": "address"
        },
        {
          "internalType": "bytes32",
          "name": "clearPassword",
          "type": "bytes32"
        }
      ],
      "name": "createHashedPassword",
      "outputs": [
        {
          "internalType": "bytes32",
          "name": "hashedPassword",
          "type": "bytes32"
        }
      ],
      "stateMutability": "view",
      "type": "function"
    },
    {
      "inputs": [
        {
          "internalType": "uint256",
          "name": "newMaxDurationBlocks",
          "type": "uint256"
        }
      ],
      "name": "changeMaxDurationBlocks",
      "outputs": [
        {
          "internalType": "bool",
          "name": "success",
          "type": "bool"
        }
      ],
      "stateMutability": "nonpayable",
      "type": "function"
    },
    {
      "inputs": [
        {
          "internalType": "uint256",
          "name": "newContractFeePercentage",
          "type": "uint256"
        }
      ],
      "name": "changeContractFeePercentage",
      "outputs": [
        {
          "internalType": "bool",
          "name": "success",
          "type": "bool"
        }
      ],
      "stateMutability": "nonpayable",
      "type": "function"
    },
    {
      "inputs": [
        {
          "internalType": "bytes32",
          "name": "hashedPassword",
          "type": "bytes32"
        },
        {
          "internalType": "uint256",
          "name": "durationBlocks",
          "type": "uint256"
        }
      ],
      "name": "depositFunds",
      "outputs": [
        {
          "internalType": "bool",
          "name": "success",
          "type": "bool"
        }
      ],
      "stateMutability": "payable",
      "type": "function"
    },
    {
      "inputs": [
        {
          "internalType": "bytes32",
          "name": "clearPassword",
          "type": "bytes32"
        }
      ],
      "name": "withdrawFunds",
      "outputs": [
        {
          "internalType": "bool",
          "name": "success",
          "type": "bool"
        }
      ],
      "stateMutability": "nonpayable",
      "type": "function"
    },
    {
      "inputs": [
        {
          "internalType": "bytes32",
          "name": "hashedPassword",
          "type": "bytes32"
        }
      ],
      "name": "reclaimFunds",
      "outputs": [
        {
          "internalType": "bool",
          "name": "success",
          "type": "bool"
        }
      ],
      "stateMutability": "nonpayable",
      "type": "function"
    },
    {
      "inputs": [],
      "name": "withdrawFees",
      "outputs": [
        {
          "internalType": "bool",
          "name": "success",
          "type": "bool"
        }
      ],
      "stateMutability": "nonpayable",
      "type": "function"
    },
    {
      "inputs": [],
      "name": "renounceOwnership",
      "outputs": [
        {
          "internalType": "bool",
          "name": "success",
          "type": "bool"
        }
      ],
      "stateMutability": "nonpayable",
      "type": "function"
    }
  ],
  "bytecode": "0x60806040523480156200001157600080fd5b5060405162002d6a38038062002d6a833981810160405260608110156200003757600080fd5b8101908080519060200190929190805190602001909291908051906020019092919050505082336000806101000a81548173ffffffffffffffffffffffffffffffffffffffff021916908373ffffffffffffffffffffffffffffffffffffffff160217905550600280811115620000aa57fe5b816002811115620000b757fe5b106200010f576040517f08c379a000000000000000000000000000000000000000000000000000000000815260040180806020018281038252604281526020018062002cfc6042913960600191505060405180910390fd5b80600060146101000a81548160ff021916908360028111156200012e57fe5b021790555050816000106200018f576040517f08c379a000000000000000000000000000000000000000000000000000000000815260040180806020018281038252602c81526020018062002d3e602c913960400191505060405180910390fd5b80600011158015620001a2575060328111155b620001f9576040517f08c379a000000000000000000000000000000000000000000000000000000000815260040180806020018281038252605281526020018062002caa6052913960600191505060405180910390fd5b8160018190555080600381905550505050612a90806200021a6000396000f3fe6080604052600436106101095760003560e01c80637a6f1c4611610095578063ac0b140911610064578063ac0b14091461049d578063c4bc5da5146104ee578063d034fd441461051b578063dbd8987c1461056c578063fae54a951461059757610109565b80637a6f1c46146103575780637f3b334614610382578063893d20e8146103f5578063a6f9dae11461043657610109565b80633ec4f270116100dc5780633ec4f2701461022e578063439766ce1461027f578063476343ee146102ac5780636e2b54ee146102d9578063715018a61461032a57610109565b8063092a5cce1461010e5780630c3360b81461013b5780631477bd90146101aa5780631865c57d146101f8575b600080fd5b34801561011a57600080fd5b506101236105fc565b60405180821515815260200191505060405180910390f35b34801561014757600080fd5b506101946004803603604081101561015e57600080fd5b81019080803573ffffffffffffffffffffffffffffffffffffffff169060200190929190803590602001909291905050506108a9565b6040518082815260200191505060405180910390f35b6101e0600480360360408110156101c057600080fd5b810190808035906020019092919080359060200190929190505050610a18565b60405180821515815260200191505060405180910390f35b34801561020457600080fd5b5061020d610eb7565b6040518082600281111561021d57fe5b815260200191505060405180910390f35b34801561023a57600080fd5b506102676004803603602081101561025157600080fd5b8101908080359060200190929190505050610ecd565b60405180821515815260200191505060405180910390f35b34801561028b57600080fd5b50610294611058565b60405180821515815260200191505060405180910390f35b3480156102b857600080fd5b506102c161122c565b60405180821515815260200191505060405180910390f35b3480156102e557600080fd5b50610312600480360360208110156102fc57600080fd5b810190808035906020019092919050505061151d565b60405180821515815260200191505060405180910390f35b34801561033657600080fd5b5061033f6117a6565b60405180821515815260200191505060405180910390f35b34801561036357600080fd5b5061036c61196a565b6040518082815260200191505060405180910390f35b34801561038e57600080fd5b506103bb600480360360208110156103a557600080fd5b8101908080359060200190929190505050611970565b604051808473ffffffffffffffffffffffffffffffffffffffff168152602001838152602001828152602001935050505060405180910390f35b34801561040157600080fd5b5061040a6119ba565b604051808273ffffffffffffffffffffffffffffffffffffffff16815260200191505060405180910390f35b34801561044257600080fd5b506104856004803603602081101561045957600080fd5b81019080803573ffffffffffffffffffffffffffffffffffffffff1690602001909291905050506119e3565b60405180821515815260200191505060405180910390f35b3480156104a957600080fd5b506104d6600480360360208110156104c057600080fd5b8101908080359060200190929190505050611c75565b60405180821515815260200191505060405180910390f35b3480156104fa57600080fd5b50610503611e0e565b60405180821515815260200191505060405180910390f35b34801561052757600080fd5b506105546004803603602081101561053e57600080fd5b8101908080359060200190929190505050611fe3565b60405180821515815260200191505060405180910390f35b34801561057857600080fd5b506105816123a2565b6040518082815260200191505060405180910390f35b3480156105a357600080fd5b506105e6600480360360208110156105ba57600080fd5b81019080803573ffffffffffffffffffffffffffffffffffffffff1690602001909291905050506123a8565b6040518082815260200191505060405180910390f35b60008060009054906101000a900473ffffffffffffffffffffffffffffffffffffffff1673ffffffffffffffffffffffffffffffffffffffff163373ffffffffffffffffffffffffffffffffffffffff16146106c0576040517f08c379a000000000000000000000000000000000000000000000000000000000815260040180806020018281038252601e8152602001807f4f776e65643a2043616c6c6572206973206e6f7420746865206f776e6572000081525060200191505060405180910390fd5b600060028111156106cd57fe5b600060149054906101000a900460ff1660028111156106e857fe5b1461073e576040517f08c379a00000000000000000000000000000000000000000000000000000000081526004018080602001828103825260218152602001806129ef6021913960400191505060405180910390fd5b6002600060146101000a81548160ff0219169083600281111561075d57fe5b02179055503373ffffffffffffffffffffffffffffffffffffffff167fb69c8d69472936aa400ce372a28aabe319f1770c9cf6bdeadf0c399035cd5ebf600060149054906101000a900460ff16604051808260028111156107ba57fe5b815260200191505060405180910390a23373ffffffffffffffffffffffffffffffffffffffff164760405180600001905060006040518083038185875af1925050503d8060008114610828576040519150601f19603f3d011682016040523d82523d6000602084013e61082d565b606091505b505080915050806108a6576040517f08c379a000000000000000000000000000000000000000000000000000000000815260040180806020018281038252600f8152602001807f5472616e73666572206661696c6564000000000000000000000000000000000081525060200191505060405180910390fd5b90565b60008073ffffffffffffffffffffffffffffffffffffffff168373ffffffffffffffffffffffffffffffffffffffff161415610930576040517f08c379a00000000000000000000000000000000000000000000000000000000081526004018080602001828103825260218152602001806128db6021913960400191505060405180910390fd5b60008214156109a7576040517f08c379a000000000000000000000000000000000000000000000000000000000815260040180806020018281038252601e8152602001807f636c65617250617373776f7264206d7573742062652070726f7669646564000081525060200191505060405180910390fd5b828230604051602001808473ffffffffffffffffffffffffffffffffffffffff1660601b81526014018381526020018273ffffffffffffffffffffffffffffffffffffffff1660601b8152601401935050505060405160208183030381529060405280519060200120905092915050565b600060016002811115610a2757fe5b600060149054906101000a900460ff166002811115610a4257fe5b14610a98576040517f08c379a0000000000000000000000000000000000000000000000000000000008152600401808060200182810382526022815260200180612a396022913960400191505060405180910390fd5b60003411610b0e576040517f08c379a00000000000000000000000000000000000000000000000000000000081526004018080602001828103825260128152602001807f4e6f7468696e6720746f206465706f736974000000000000000000000000000081525060200191505060405180910390fd5b6000831415610b85576040517f08c379a000000000000000000000000000000000000000000000000000000000815260040180806020018281038252601f8152602001807f68617368656450617373776f7264206d7573742062652070726f76696465640081525060200191505060405180910390fd5b600082118015610b9757506001548211155b610bec576040517f08c379a000000000000000000000000000000000000000000000000000000000815260040180806020018281038252604e81526020018061288d604e913960600191505060405180910390fd5b600073ffffffffffffffffffffffffffffffffffffffff166004600085815260200190815260200160002060000160009054906101000a900473ffffffffffffffffffffffffffffffffffffffff1673ffffffffffffffffffffffffffffffffffffffff1614610cc4576040517f08c379a00000000000000000000000000000000000000000000000000000000081526004018080602001828103825260198152602001807f52656d697474616e6365206d75737420626520756e697175650000000000000081525060200191505060405180910390fd5b6000610cee6064610ce0600354346123c090919063ffffffff16565b61244690919063ffffffff16565b90506000610d05823461249090919063ffffffff16565b90506000610d1c85436124da90919063ffffffff16565b90506000610d286119ba565b9050336004600089815260200190815260200160002060000160006101000a81548173ffffffffffffffffffffffffffffffffffffffff021916908373ffffffffffffffffffffffffffffffffffffffff160217905550826004600089815260200190815260200160002060010181905550816004600089815260200190815260200160002060020181905550610e0784600260008473ffffffffffffffffffffffffffffffffffffffff1673ffffffffffffffffffffffffffffffffffffffff168152602001908152602001600020546124da90919063ffffffff16565b600260008373ffffffffffffffffffffffffffffffffffffffff1673ffffffffffffffffffffffffffffffffffffffff168152602001908152602001600020819055503373ffffffffffffffffffffffffffffffffffffffff16877f6866ebefdb8a502d2b6a681ff4e59e8c8a72d1932bbd2789dd51b5b8ca1a724185858860405180848152602001838152602001828152602001935050505060405180910390a3600194505050505092915050565b60008060149054906101000a900460ff16905090565b60008060009054906101000a900473ffffffffffffffffffffffffffffffffffffffff1673ffffffffffffffffffffffffffffffffffffffff163373ffffffffffffffffffffffffffffffffffffffff1614610f91576040517f08c379a000000000000000000000000000000000000000000000000000000000815260040180806020018281038252601e8152602001807f4f776e65643a2043616c6c6572206973206e6f7420746865206f776e6572000081525060200191505060405180910390fd5b60008211610fea576040517f08c379a000000000000000000000000000000000000000000000000000000000815260040180806020018281038252602f8152602001806128fc602f913960400191505060405180910390fd5b60006001549050826001819055503373ffffffffffffffffffffffffffffffffffffffff167fed88ac9253cb3d94592dc1ea203a50df0879f4b338ad2a911023d7f4ab65e7168285604051808381526020018281526020019250505060405180910390a26001915050919050565b60008060009054906101000a900473ffffffffffffffffffffffffffffffffffffffff1673ffffffffffffffffffffffffffffffffffffffff163373ffffffffffffffffffffffffffffffffffffffff161461111c576040517f08c379a000000000000000000000000000000000000000000000000000000000815260040180806020018281038252601e8152602001807f4f776e65643a2043616c6c6572206973206e6f7420746865206f776e6572000081525060200191505060405180910390fd5b6001600281111561112957fe5b600060149054906101000a900460ff16600281111561114457fe5b1461119a576040517f08c379a0000000000000000000000000000000000000000000000000000000008152600401808060200182810382526022815260200180612a396022913960400191505060405180910390fd5b60008060146101000a81548160ff021916908360028111156111b857fe5b02179055503373ffffffffffffffffffffffffffffffffffffffff167fb69c8d69472936aa400ce372a28aabe319f1770c9cf6bdeadf0c399035cd5ebf600060149054906101000a900460ff166040518082600281111561121557fe5b815260200191505060405180910390a26001905090565b60008060009054906101000a900473ffffffffffffffffffffffffffffffffffffffff1673ffffffffffffffffffffffffffffffffffffffff163373ffffffffffffffffffffffffffffffffffffffff16146112f0576040517f08c379a000000000000000000000000000000000000000000000000000000000815260040180806020018281038252601e8152602001807f4f776e65643a2043616c6c6572206973206e6f7420746865206f776e6572000081525060200191505060405180910390fd5b6000600260003373ffffffffffffffffffffffffffffffffffffffff1673ffffffffffffffffffffffffffffffffffffffff168152602001908152602001600020549050600081116113aa576040517f08c379a00000000000000000000000000000000000000000000000000000000081526004018080602001828103825260138152602001807f4e6f206665657320746f2077697468647261770000000000000000000000000081525060200191505060405180910390fd5b6000600260003373ffffffffffffffffffffffffffffffffffffffff1673ffffffffffffffffffffffffffffffffffffffff168152602001908152602001600020819055503373ffffffffffffffffffffffffffffffffffffffff167feb5e942d7f3b36dcf9ca0c07c75a30abc4da6d38f1e9fe3a6e1e5a7fa294e0a5826040518082815260200191505060405180910390a23373ffffffffffffffffffffffffffffffffffffffff168160405180600001905060006040518083038185875af1925050503d806000811461149b576040519150601f19603f3d011682016040523d82523d6000602084013e6114a0565b606091505b50508092505081611519576040517f08c379a000000000000000000000000000000000000000000000000000000000815260040180806020018281038252600f8152602001807f5472616e73666572206661696c6564000000000000000000000000000000000081525060200191505060405180910390fd5b5090565b60006001600281111561152c57fe5b600060149054906101000a900460ff16600281111561154757fe5b1461159d576040517f08c379a0000000000000000000000000000000000000000000000000000000008152600401808060200182810382526022815260200180612a396022913960400191505060405180910390fd5b60006115a933846108a9565b90506000600460008381526020019081526020016000206001015490506000811161163c576040517f08c379a00000000000000000000000000000000000000000000000000000000081526004018080602001828103825260148152602001807f4e6f2076616c756520746f20726574726965766500000000000000000000000081525060200191505060405180910390fd5b60006004600084815260200190815260200160002060010181905550600060046000848152602001908152602001600020600201819055503373ffffffffffffffffffffffffffffffffffffffff16827f0355afbb4d02cce7c76448675fa4be6e14456fdc22414c712e7c2c5f6e70b4ac836040518082815260200191505060405180910390a33373ffffffffffffffffffffffffffffffffffffffff168160405180600001905060006040518083038185875af1925050503d8060008114611721576040519150601f19603f3d011682016040523d82523d6000602084013e611726565b606091505b5050809350508261179f576040517f08c379a000000000000000000000000000000000000000000000000000000000815260040180806020018281038252600f8152602001807f5472616e73666572206661696c6564000000000000000000000000000000000081525060200191505060405180910390fd5b5050919050565b60008060009054906101000a900473ffffffffffffffffffffffffffffffffffffffff1673ffffffffffffffffffffffffffffffffffffffff163373ffffffffffffffffffffffffffffffffffffffff161461186a576040517f08c379a000000000000000000000000000000000000000000000000000000000815260040180806020018281038252601e8152602001807f4f776e65643a2043616c6c6572206973206e6f7420746865206f776e6572000081525060200191505060405180910390fd5b6000600354146118c5576040517f08c379a00000000000000000000000000000000000000000000000000000000081526004018080602001828103825260268152602001806129566026913960400191505060405180910390fd5b6000600260003373ffffffffffffffffffffffffffffffffffffffff1673ffffffffffffffffffffffffffffffffffffffff168152602001908152602001600020541461195d576040517f08c379a00000000000000000000000000000000000000000000000000000000081526004018080602001828103825260288152602001806129c76028913960400191505060405180910390fd5b611965612562565b905090565b60015481565b60046020528060005260406000206000915090508060000160009054906101000a900473ffffffffffffffffffffffffffffffffffffffff16908060010154908060020154905083565b60008060009054906101000a900473ffffffffffffffffffffffffffffffffffffffff16905090565b60008060009054906101000a900473ffffffffffffffffffffffffffffffffffffffff1673ffffffffffffffffffffffffffffffffffffffff163373ffffffffffffffffffffffffffffffffffffffff1614611aa7576040517f08c379a000000000000000000000000000000000000000000000000000000000815260040180806020018281038252601e8152602001807f4f776e65643a2043616c6c6572206973206e6f7420746865206f776e6572000081525060200191505060405180910390fd5b600073ffffffffffffffffffffffffffffffffffffffff168273ffffffffffffffffffffffffffffffffffffffff161415611b2d576040517f08c379a000000000000000000000000000000000000000000000000000000000815260040180806020018281038252602b81526020018061292b602b913960400191505060405180910390fd5b60008054906101000a900473ffffffffffffffffffffffffffffffffffffffff1673ffffffffffffffffffffffffffffffffffffffff168273ffffffffffffffffffffffffffffffffffffffff161415611bd2576040517f08c379a0000000000000000000000000000000000000000000000000000000008152600401808060200182810382526029815260200180612a106029913960400191505060405180910390fd5b816000806101000a81548173ffffffffffffffffffffffffffffffffffffffff021916908373ffffffffffffffffffffffffffffffffffffffff1602179055508173ffffffffffffffffffffffffffffffffffffffff163373ffffffffffffffffffffffffffffffffffffffff167ffcf23a92150d56e85e3a3d33b357493246e55783095eb6a733eb8439ffc752c860405160405180910390a360019050919050565b60008060009054906101000a900473ffffffffffffffffffffffffffffffffffffffff1673ffffffffffffffffffffffffffffffffffffffff163373ffffffffffffffffffffffffffffffffffffffff1614611d39576040517f08c379a000000000000000000000000000000000000000000000000000000000815260040180806020018281038252601e8152602001807f4f776e65643a2043616c6c6572206973206e6f7420746865206f776e6572000081525060200191505060405180910390fd5b81600011158015611d4b575060328211155b611da0576040517f08c379a00000000000000000000000000000000000000000000000000000000081526004018080602001828103825260558152602001806128386055913960600191505060405180910390fd5b60006003549050826003819055503373ffffffffffffffffffffffffffffffffffffffff167ff2c061138d9b31ab148c1240139a71a3746cabe8d77f75b2b0a10844b8ce3b8e8285604051808381526020018281526020019250505060405180910390a26001915050919050565b60008060009054906101000a900473ffffffffffffffffffffffffffffffffffffffff1673ffffffffffffffffffffffffffffffffffffffff163373ffffffffffffffffffffffffffffffffffffffff1614611ed2576040517f08c379a000000000000000000000000000000000000000000000000000000000815260040180806020018281038252601e8152602001807f4f776e65643a2043616c6c6572206973206e6f7420746865206f776e6572000081525060200191505060405180910390fd5b60006002811115611edf57fe5b600060149054906101000a900460ff166002811115611efa57fe5b14611f50576040517f08c379a00000000000000000000000000000000000000000000000000000000081526004018080602001828103825260218152602001806129ef6021913960400191505060405180910390fd5b6001600060146101000a81548160ff02191690836002811115611f6f57fe5b02179055503373ffffffffffffffffffffffffffffffffffffffff167fb69c8d69472936aa400ce372a28aabe319f1770c9cf6bdeadf0c399035cd5ebf600060149054906101000a900460ff1660405180826002811115611fcc57fe5b815260200191505060405180910390a26001905090565b600060016002811115611ff257fe5b600060149054906101000a900460ff16600281111561200d57fe5b14612063576040517f08c379a0000000000000000000000000000000000000000000000000000000008152600401808060200182810382526022815260200180612a396022913960400191505060405180910390fd5b3373ffffffffffffffffffffffffffffffffffffffff166004600084815260200190815260200160002060000160009054906101000a900473ffffffffffffffffffffffffffffffffffffffff1673ffffffffffffffffffffffffffffffffffffffff161461211d576040517f08c379a000000000000000000000000000000000000000000000000000000000815260040180806020018281038252602a81526020018061299d602a913960400191505060405180910390fd5b436004600084815260200190815260200160002060020154106121a8576040517f08c379a000000000000000000000000000000000000000000000000000000000815260040180806020018281038252601d8152602001807f52656d697474616e6365206973206e6f7420657870697265642079657400000081525060200191505060405180910390fd5b60006004600084815260200190815260200160002060010154905060008111612239576040517f08c379a00000000000000000000000000000000000000000000000000000000081526004018080602001828103825260148152602001807f4e6f2076616c756520746f20726574726965766500000000000000000000000081525060200191505060405180910390fd5b60006004600085815260200190815260200160002060010181905550600060046000858152602001908152602001600020600201819055503373ffffffffffffffffffffffffffffffffffffffff16837f92a06249669a4a572d8c78b58887ad57bff8c8da6e65fa38eab38e5b06623d78836040518082815260200191505060405180910390a33373ffffffffffffffffffffffffffffffffffffffff168160405180600001905060006040518083038185875af1925050503d806000811461231e576040519150601f19603f3d011682016040523d82523d6000602084013e612323565b606091505b5050809250508161239c576040517f08c379a000000000000000000000000000000000000000000000000000000000815260040180806020018281038252600f8152602001807f5472616e73666572206661696c6564000000000000000000000000000000000081525060200191505060405180910390fd5b50919050565b60035481565b60026020528060005260406000206000915090505481565b6000808314156123d35760009050612440565b60008284029050828482816123e457fe5b041461243b576040517f08c379a000000000000000000000000000000000000000000000000000000000815260040180806020018281038252602181526020018061297c6021913960400191505060405180910390fd5b809150505b92915050565b600061248883836040518060400160405280601a81526020017f536166654d6174683a206469766973696f6e206279207a65726f0000000000008152506126b1565b905092915050565b60006124d283836040518060400160405280601e81526020017f536166654d6174683a207375627472616374696f6e206f766572666c6f770000815250612777565b905092915050565b600080828401905083811015612558576040517f08c379a000000000000000000000000000000000000000000000000000000000815260040180806020018281038252601b8152602001807f536166654d6174683a206164646974696f6e206f766572666c6f77000000000081525060200191505060405180910390fd5b8091505092915050565b60008060009054906101000a900473ffffffffffffffffffffffffffffffffffffffff1673ffffffffffffffffffffffffffffffffffffffff163373ffffffffffffffffffffffffffffffffffffffff1614612626576040517f08c379a000000000000000000000000000000000000000000000000000000000815260040180806020018281038252601e8152602001807f4f776e65643a2043616c6c6572206973206e6f7420746865206f776e6572000081525060200191505060405180910390fd5b60008060006101000a81548173ffffffffffffffffffffffffffffffffffffffff021916908373ffffffffffffffffffffffffffffffffffffffff1602179055503373ffffffffffffffffffffffffffffffffffffffff167f2dde1bc8b58ef192e7df3e7a354521d958331021e450d544346b936936916ef460405160405180910390a26001905090565b6000808311829061275d576040517f08c379a00000000000000000000000000000000000000000000000000000000081526004018080602001828103825283818151815260200191508051906020019080838360005b83811015612722578082015181840152602081019050612707565b50505050905090810190601f16801561274f5780820380516001836020036101000a031916815260200191505b509250505060405180910390fd5b50600083858161276957fe5b049050809150509392505050565b6000838311158290612824576040517f08c379a00000000000000000000000000000000000000000000000000000000081526004018080602001828103825283818151815260200191508051906020019080838360005b838110156127e95780820151818401526020810190506127ce565b50505050905090810190601f1680156128165780820380516001836020036101000a031916815260200191505b509250505060405180910390fd5b506000838503905080915050939250505056fe6e6577436f6e747261637446656550657263656e74616765206d75737420626520612076616c7565206265747765656e203020286c6f77657220626f756e642920616e642035302028757070657220626f756e64296475726174696f6e426c6f636b73206d7573742062652067726561746572207468616e203020616e64206c657373206f7220657175616c207468616e206d61784475726174696f6e426c6f636b7365786368616e67652061646472657373206d7573742062652070726f76696465646e65774d61784475726174696f6e426c6f636b73206e6565647320746f2062652067726561746572207468616e20304f776e65643a204f776e657273686970206973206e6f74207472616e7366657261626c6520746f20307830636f6e747261637446656550657263656e7461676520776173206e6f742073657420746f2030536166654d6174683a206d756c7469706c69636174696f6e206f766572666c6f7752656d697474616e63652063616e206f6e6c79206265207265636c61696d6564206279206f726967696e636f6e7472616374436f6c6c6563746564466565732077657265206e6f742077697468647261776e53746f707061626c653a20436f6e7472616374206973206e6f74207061757365644f776e65643a204f776e657273686970206973206e6f742073656c662d7472616e7366657261626c6553746f707061626c653a20436f6e7472616374206973206e6f742072756e6e696e67a264697066735822122091554a261a10409b16cb8ad9e3576f8c968a89fec524a48b9f831fba49fb054764736f6c634300060c0033636f6e747261637446656550657263656e74616765206d75737420626520612076616c7565206265747765656e203020286c6f77657220626f756e642920616e642035302028757070657220626f756e642953746f707061626c653a20496e697469616c20636f6e74726163742073746174652063616e2062652030202870617573656429206f722031202872756e6e696e67296d61784475726174696f6e426c6f636b73206e6565647320746f2062652067726561746572207468616e2030",
  "immutableReferences": {},
  "source": "// SPDX-License-Identifier: Unlicense\n\n//B9lab ETH-SUB Ethereum Developer Subscription Course\n//>>> Remittance <<<\n//\n//Last update: 06.02.2021\n\npragma solidity 0.6.12;\n\nimport \"./Stoppable.sol\";\nimport \"@openzeppelin/contracts/math/SafeMath.sol\";\n\n/**\n * @title Remittance\n *  Funds can be securely moved from person to person including a trustless third party (exchange shop)\n */\ncontract Remittance is Stoppable{\n    using SafeMath for uint;\n\n    //Max block duration after funds can be reclaimed by origin\n    uint public maxDurationBlocks;\n\n    //Contract fee that is taken from the deposited funds\n    mapping(address => uint) public contractCollectedFees;\n    uint public contractFeePercentage;\n    uint constant MAX_FEES = 50;\n\n    struct RemittanceStruct{\n        address origin;\n        uint amount;\n        uint deadline;\n    }\n    mapping(bytes32 => RemittanceStruct) public remittanceStructs;\n\n    event LogFundsDeposited(bytes32 indexed hashedPassword, address indexed origin, uint amount, uint deadline, uint fee);\n    event LogFundsWithdrawn(bytes32 indexed hashedPassword, address indexed receiver, uint amount);\n    event LogFundsReclaimed(bytes32 indexed hashedPassword, address indexed origin, uint amount);\n    event LogMaxDurationChanged(address indexed sender, uint oldMaxDurationBlocks, uint newMaxDurationBlocks);\n    event LogContractFeePercentageChanged(address indexed sender, uint oldContractFeePercentage, uint newContractFeePercentage);\n    event LogFeesWithdrawn(address indexed sender, uint amount);\n\n    /**\n     * @dev Contract constructor function\n     *\n     * @param initialState The state the contract is in after deployment (paused or running)\n     * @param _maxDurationBlocks Sets the initial upper duration limit in blocks until remittances can be claimed\n     * @param _contractFeePercentage Sets the initial fees for depositing funds in this contract\n     */\n    constructor(State initialState, uint _maxDurationBlocks, uint _contractFeePercentage)\n        Stoppable(initialState) public {\n            require(0 < _maxDurationBlocks, \"maxDurationBlocks needs to be greater than 0\");\n            require(0 <= _contractFeePercentage && _contractFeePercentage <= MAX_FEES,\n                \"contractFeePercentage must be a value between 0 (lower bound) and 50 (upper bound)\");\n\n            maxDurationBlocks = _maxDurationBlocks;\n            contractFeePercentage = _contractFeePercentage;\n        }\n\n    /**\n     * @dev Support function: Create a unique hashed password off-chain to be used for depositFunds() and reclaimFunds()\n     *\n     * @param exchange The address of the recipient (exchange)\n     * @param clearPassword The uncrypted, plain password\n     */\n    function createHashedPassword(address exchange, bytes32 clearPassword) public view returns(bytes32 hashedPassword){\n        require(exchange != address(0x0), \"exchange address must be provided\");\n        require(clearPassword != \"\", \"clearPassword must be provided\");\n\n        return keccak256(abi.encodePacked(exchange, clearPassword, address(this)));\n    }\n\n    /**\n     * @dev Change the maximum allowed duration until the remittance funds can be reclaimed by sender\n     *\n     * @param newMaxDurationBlocks New maximum duration in blocks for new remittances\n     */\n    function changeMaxDurationBlocks(uint newMaxDurationBlocks) public onlyOwner returns(bool success){\n        require(newMaxDurationBlocks > 0, \"newMaxDurationBlocks needs to be greater than 0\");\n\n        uint oldMaxDurationBlocks = maxDurationBlocks;\n        maxDurationBlocks = newMaxDurationBlocks;\n\n        emit LogMaxDurationChanged(msg.sender, oldMaxDurationBlocks, newMaxDurationBlocks);\n        return true;\n    }\n\n    /**\n     * @dev Change the contract fee percentage that takes a share of the deposits for this contact\n     *\n     * @param newContractFeePercentage The new fee percentage of this contract is given in '%',\n     *          therefore between 0 (lower bound) and 50 (upper bound)\n     */\n    function changeContractFeePercentage(uint newContractFeePercentage) public onlyOwner returns(bool success){\n        require(0 <= newContractFeePercentage && newContractFeePercentage <= MAX_FEES,\n            \"newContractFeePercentage must be a value between 0 (lower bound) and 50 (upper bound)\");\n\n        uint oldContractFeePercentage = contractFeePercentage;\n        contractFeePercentage = newContractFeePercentage;\n\n        emit LogContractFeePercentageChanged(msg.sender, oldContractFeePercentage, newContractFeePercentage);\n        return true;\n    }\n\n    /**\n     * @dev Create a new remittance that can be only withdrawn by the receiver specified in createHashedPassword()\n     *\n     * @param hashedPassword Hashed password created by createHashedPassword()\n     * @param durationBlocks Duration in blocks until sender can reclaim unwithdrawn funds\n     */\n    function depositFunds(bytes32 hashedPassword, uint durationBlocks) public payable onlyIfRunning returns(bool success){\n        require(msg.value > 0, \"Nothing to deposit\");\n        require(hashedPassword != \"\", \"hashedPassword must be provided\");\n        require(durationBlocks > 0 && durationBlocks <= maxDurationBlocks, \"durationBlocks must be greater than 0 and less or equal than maxDurationBlocks\");\n\n        //Check for address, i.e. same exchange address and password configuration must never have been used before within this contract\n        require(remittanceStructs[hashedPassword].origin == address(0x0), \"Remittance must be unique\");\n\n        uint fee = msg.value.mul(contractFeePercentage).div(100);\n        uint amount = msg.value.sub(fee);\n\n        uint deadline = block.number.add(durationBlocks);\n\n        address contractOwner = getOwner();\n\n        remittanceStructs[hashedPassword].origin = msg.sender;\n        remittanceStructs[hashedPassword].amount = amount;\n        remittanceStructs[hashedPassword].deadline = deadline;\n        contractCollectedFees[contractOwner] = contractCollectedFees[contractOwner].add(fee);\n\n        emit LogFundsDeposited(hashedPassword, msg.sender, amount, deadline, fee);\n        return true;\n    }\n\n    /**\n     * @dev Retrieve remittance with the correct password (only by receiver specified in createHashedPassword())\n     *\n     * @param clearPassword Clear password that was kept secret\n     */\n    function withdrawFunds(bytes32 clearPassword) public onlyIfRunning returns(bool success){\n        bytes32 hashedPassword = createHashedPassword(msg.sender, clearPassword);\n\n        uint amount = remittanceStructs[hashedPassword].amount;\n        require(amount > 0, \"No value to retrieve\");\n\n        remittanceStructs[hashedPassword].amount = 0;\n        remittanceStructs[hashedPassword].deadline = 0;\n        emit LogFundsWithdrawn(hashedPassword, msg.sender, amount);\n\n        //EIP 1884 (https://eips.ethereum.org/EIPS/eip-1884) within Istanbul hard fork\n        //Avoidance of Solidity's transfer() or send() methods\n        (success, ) = msg.sender.call{value: amount}(\"\");\n        require(success, \"Transfer failed\");\n    }\n\n    /**\n     * @dev Reclaim remittance after deadline expired (only by origin)\n     *\n     * @param hashedPassword Hashed password created by createHashedPassword()\n     */\n    function reclaimFunds(bytes32 hashedPassword) public onlyIfRunning returns(bool success){\n        require(remittanceStructs[hashedPassword].origin == msg.sender, \"Remittance can only be reclaimed by origin\");\n        require(remittanceStructs[hashedPassword].deadline < block.number, \"Remittance is not expired yet\");\n\n        uint amount = remittanceStructs[hashedPassword].amount;\n        require(amount > 0, \"No value to retrieve\");\n\n        remittanceStructs[hashedPassword].amount = 0;\n        remittanceStructs[hashedPassword].deadline = 0;\n        emit LogFundsReclaimed(hashedPassword, msg.sender, amount);\n\n        //EIP 1884 (https://eips.ethereum.org/EIPS/eip-1884) within Istanbul hard fork\n        //Avoidance of Solidity's transfer() or send() methods\n        (success, ) = msg.sender.call{value: amount}(\"\");\n        require(success, \"Transfer failed\");\n    }\n\n    /**\n     * @dev Withdraw collected fees from deposits\n     */\n    function withdrawFees() public onlyOwner returns(bool success){\n        uint amount = contractCollectedFees[msg.sender];\n        require(amount > 0, \"No fees to withdraw\");\n        contractCollectedFees[msg.sender] = 0;\n\n        emit LogFeesWithdrawn(msg.sender, amount);\n\n        //EIP 1884 (https://eips.ethereum.org/EIPS/eip-1884) within Istanbul hard fork\n        //Avoidance of Solidity's transfer() or send() methods\n        (success, ) = msg.sender.call{value: amount}(\"\");\n        require(success, \"Transfer failed\");\n    }\n\n    /**\n     * @dev Ownership can only be renounced (by owner).\n     *      It is required that contract fees were withdrawn and contractFeePercentage was set to 0\n     */\n    function renounceOwnership() public override onlyOwner returns(bool success){\n        require(contractFeePercentage == 0, \"contractFeePercentage was not set to 0\");\n        require(contractCollectedFees[msg.sender] == 0, \"contractCollectedFees were not withdrawn\");\n\n        return Owned.renounceOwnership();\n    }\n}",
  "sourcePath": "/home/niels/ITstuff/ETH-SUB/DAPPS/project_remittance/contracts/Remittance.sol",
  "compiler": {
    "name": "solc",
    "version": "0.6.12+commit.27d51765.Emscripten.clang"
  },
  "schemaVersion": "3.3.3",
  "updatedAt": "2021-02-06T15:51:03.365Z",
  "devdoc": {
    "kind": "dev",
    "methods": {
      "changeContractFeePercentage(uint256)": {
        "details": "Change the contract fee percentage that takes a share of the deposits for this contact",
        "params": {
          "newContractFeePercentage": "The new fee percentage of this contract is given in '%',          therefore between 0 (lower bound) and 50 (upper bound)"
        }
      },
      "changeMaxDurationBlocks(uint256)": {
        "details": "Change the maximum allowed duration until the remittance funds can be reclaimed by sender",
        "params": {
          "newMaxDurationBlocks": "New maximum duration in blocks for new remittances"
        }
      },
      "constructor": {
        "details": "Contract constructor function",
        "params": {
          "_contractFeePercentage": "Sets the initial fees for depositing funds in this contract",
          "_maxDurationBlocks": "Sets the initial upper duration limit in blocks until remittances can be claimed",
          "initialState": "The state the contract is in after deployment (paused or running)"
        }
      },
      "createHashedPassword(address,bytes32)": {
        "details": "Support function: Create a unique hashed password off-chain to be used for depositFunds() and reclaimFunds()",
        "params": {
          "clearPassword": "The uncrypted, plain password",
          "exchange": "The address of the recipient (exchange)"
        }
      },
      "depositFunds(bytes32,uint256)": {
        "details": "Create a new remittance that can be only withdrawn by the receiver specified in createHashedPassword()",
        "params": {
          "durationBlocks": "Duration in blocks until sender can reclaim unwithdrawn funds",
          "hashedPassword": "Hashed password created by createHashedPassword()"
        }
      },
      "reclaimFunds(bytes32)": {
        "details": "Reclaim remittance after deadline expired (only by origin)",
        "params": {
          "hashedPassword": "Hashed password created by createHashedPassword()"
        }
      },
      "renounceOwnership()": {
        "details": "Ownership can only be renounced (by owner).      It is required that contract fees were withdrawn and contractFeePercentage was set to 0"
      },
      "withdrawFees()": {
        "details": "Withdraw collected fees from deposits"
      },
      "withdrawFunds(bytes32)": {
        "details": "Retrieve remittance with the correct password (only by receiver specified in createHashedPassword())",
        "params": {
          "clearPassword": "Clear password that was kept secret"
        }
      }
    },
    "title": "Remittance  Funds can be securely moved from person to person including a trustless third party (exchange shop)",
    "version": 1
  },
  "userdoc": {
    "kind": "user",
    "methods": {},
    "version": 1
  }
}