{
  "contractName": "Stoppable",
  "abi": [
    {
      "inputs": [
        {
          "internalType": "enum Stoppable.State",
          "name": "initialState",
          "type": "uint8"
        }
      ],
      "stateMutability": "nonpayable",
      "type": "constructor"
    },
    {
      "anonymous": false,
      "inputs": [
        {
          "indexed": true,
          "internalType": "address",
          "name": "oldOwner",
          "type": "address"
        },
        {
          "indexed": true,
          "internalType": "address",
          "name": "newOwner",
          "type": "address"
        }
      ],
      "name": "LogOwnerChanged",
      "type": "event"
    },
    {
      "anonymous": false,
      "inputs": [
        {
          "indexed": true,
          "internalType": "address",
          "name": "owner",
          "type": "address"
        }
      ],
      "name": "LogOwnershipRenounced",
      "type": "event"
    },
    {
      "anonymous": false,
      "inputs": [
        {
          "indexed": true,
          "internalType": "address",
          "name": "sender",
          "type": "address"
        },
        {
          "indexed": false,
          "internalType": "enum Stoppable.State",
          "name": "state",
          "type": "uint8"
        }
      ],
      "name": "LogStoppable",
      "type": "event"
    },
    {
      "inputs": [
        {
          "internalType": "address",
          "name": "newOwner",
          "type": "address"
        }
      ],
      "name": "changeOwner",
      "outputs": [
        {
          "internalType": "bool",
          "name": "success",
          "type": "bool"
        }
      ],
      "stateMutability": "nonpayable",
      "type": "function"
    },
    {
      "inputs": [],
      "name": "getOwner",
      "outputs": [
        {
          "internalType": "address",
          "name": "ownersAddress",
          "type": "address"
        }
      ],
      "stateMutability": "view",
      "type": "function"
    },
    {
      "inputs": [],
      "name": "renounceOwnership",
      "outputs": [
        {
          "internalType": "bool",
          "name": "success",
          "type": "bool"
        }
      ],
      "stateMutability": "nonpayable",
      "type": "function"
    },
    {
      "inputs": [],
      "name": "getState",
      "outputs": [
        {
          "internalType": "enum Stoppable.State",
          "name": "contractState",
          "type": "uint8"
        }
      ],
      "stateMutability": "view",
      "type": "function"
    },
    {
      "inputs": [],
      "name": "pauseContract",
      "outputs": [
        {
          "internalType": "bool",
          "name": "success",
          "type": "bool"
        }
      ],
      "stateMutability": "nonpayable",
      "type": "function"
    },
    {
      "inputs": [],
      "name": "resumeContract",
      "outputs": [
        {
          "internalType": "bool",
          "name": "success",
          "type": "bool"
        }
      ],
      "stateMutability": "nonpayable",
      "type": "function"
    },
    {
      "inputs": [],
      "name": "destroyContract",
      "outputs": [
        {
          "internalType": "bool",
          "name": "success",
          "type": "bool"
        }
      ],
      "stateMutability": "nonpayable",
      "type": "function"
    }
  ],
  "bytecode": "0x608060405234801561001057600080fd5b50604051610e63380380610e638339818101604052602081101561003357600080fd5b8101908080519060200190929190505050336000806101000a81548173ffffffffffffffffffffffffffffffffffffffff021916908373ffffffffffffffffffffffffffffffffffffffff16021790555060028081111561009057fe5b81600281111561009c57fe5b106100f2576040517f08c379a0000000000000000000000000000000000000000000000000000000008152600401808060200182810382526042815260200180610e216042913960600191505060405180910390fd5b80600060146101000a81548160ff0219169083600281111561011057fe5b021790555050610cfc806101256000396000f3fe608060405234801561001057600080fd5b506004361061007d5760003560e01c8063715018a61161005b578063715018a6146100eb578063893d20e81461010b578063a6f9dae11461013f578063c4bc5da5146101995761007d565b8063092a5cce146100825780631865c57d146100a2578063439766ce146100cb575b600080fd5b61008a6101b9565b60405180821515815260200191505060405180910390f35b6100aa610466565b604051808260028111156100ba57fe5b815260200191505060405180910390f35b6100d361047c565b60405180821515815260200191505060405180910390f35b6100f3610650565b60405180821515815260200191505060405180910390f35b61011361079f565b604051808273ffffffffffffffffffffffffffffffffffffffff16815260200191505060405180910390f35b6101816004803603602081101561015557600080fd5b81019080803573ffffffffffffffffffffffffffffffffffffffff1690602001909291905050506107c8565b60405180821515815260200191505060405180910390f35b6101a1610a5a565b60405180821515815260200191505060405180910390f35b60008060009054906101000a900473ffffffffffffffffffffffffffffffffffffffff1673ffffffffffffffffffffffffffffffffffffffff163373ffffffffffffffffffffffffffffffffffffffff161461027d576040517f08c379a000000000000000000000000000000000000000000000000000000000815260040180806020018281038252601e8152602001807f4f776e65643a2043616c6c6572206973206e6f7420746865206f776e6572000081525060200191505060405180910390fd5b6000600281111561028a57fe5b600060149054906101000a900460ff1660028111156102a557fe5b146102fb576040517f08c379a0000000000000000000000000000000000000000000000000000000008152600401808060200182810382526021815260200180610c5b6021913960400191505060405180910390fd5b6002600060146101000a81548160ff0219169083600281111561031a57fe5b02179055503373ffffffffffffffffffffffffffffffffffffffff167fb69c8d69472936aa400ce372a28aabe319f1770c9cf6bdeadf0c399035cd5ebf600060149054906101000a900460ff166040518082600281111561037757fe5b815260200191505060405180910390a23373ffffffffffffffffffffffffffffffffffffffff164760405180600001905060006040518083038185875af1925050503d80600081146103e5576040519150601f19603f3d011682016040523d82523d6000602084013e6103ea565b606091505b50508091505080610463576040517f08c379a000000000000000000000000000000000000000000000000000000000815260040180806020018281038252600f8152602001807f5472616e73666572206661696c6564000000000000000000000000000000000081525060200191505060405180910390fd5b90565b60008060149054906101000a900460ff16905090565b60008060009054906101000a900473ffffffffffffffffffffffffffffffffffffffff1673ffffffffffffffffffffffffffffffffffffffff163373ffffffffffffffffffffffffffffffffffffffff1614610540576040517f08c379a000000000000000000000000000000000000000000000000000000000815260040180806020018281038252601e8152602001807f4f776e65643a2043616c6c6572206973206e6f7420746865206f776e6572000081525060200191505060405180910390fd5b6001600281111561054d57fe5b600060149054906101000a900460ff16600281111561056857fe5b146105be576040517f08c379a0000000000000000000000000000000000000000000000000000000008152600401808060200182810382526022815260200180610ca56022913960400191505060405180910390fd5b60008060146101000a81548160ff021916908360028111156105dc57fe5b02179055503373ffffffffffffffffffffffffffffffffffffffff167fb69c8d69472936aa400ce372a28aabe319f1770c9cf6bdeadf0c399035cd5ebf600060149054906101000a900460ff166040518082600281111561063957fe5b815260200191505060405180910390a26001905090565b60008060009054906101000a900473ffffffffffffffffffffffffffffffffffffffff1673ffffffffffffffffffffffffffffffffffffffff163373ffffffffffffffffffffffffffffffffffffffff1614610714576040517f08c379a000000000000000000000000000000000000000000000000000000000815260040180806020018281038252601e8152602001807f4f776e65643a2043616c6c6572206973206e6f7420746865206f776e6572000081525060200191505060405180910390fd5b60008060006101000a81548173ffffffffffffffffffffffffffffffffffffffff021916908373ffffffffffffffffffffffffffffffffffffffff1602179055503373ffffffffffffffffffffffffffffffffffffffff167f2dde1bc8b58ef192e7df3e7a354521d958331021e450d544346b936936916ef460405160405180910390a26001905090565b60008060009054906101000a900473ffffffffffffffffffffffffffffffffffffffff16905090565b60008060009054906101000a900473ffffffffffffffffffffffffffffffffffffffff1673ffffffffffffffffffffffffffffffffffffffff163373ffffffffffffffffffffffffffffffffffffffff161461088c576040517f08c379a000000000000000000000000000000000000000000000000000000000815260040180806020018281038252601e8152602001807f4f776e65643a2043616c6c6572206973206e6f7420746865206f776e6572000081525060200191505060405180910390fd5b600073ffffffffffffffffffffffffffffffffffffffff168273ffffffffffffffffffffffffffffffffffffffff161415610912576040517f08c379a000000000000000000000000000000000000000000000000000000000815260040180806020018281038252602b815260200180610c30602b913960400191505060405180910390fd5b60008054906101000a900473ffffffffffffffffffffffffffffffffffffffff1673ffffffffffffffffffffffffffffffffffffffff168273ffffffffffffffffffffffffffffffffffffffff1614156109b7576040517f08c379a0000000000000000000000000000000000000000000000000000000008152600401808060200182810382526029815260200180610c7c6029913960400191505060405180910390fd5b816000806101000a81548173ffffffffffffffffffffffffffffffffffffffff021916908373ffffffffffffffffffffffffffffffffffffffff1602179055508173ffffffffffffffffffffffffffffffffffffffff163373ffffffffffffffffffffffffffffffffffffffff167ffcf23a92150d56e85e3a3d33b357493246e55783095eb6a733eb8439ffc752c860405160405180910390a360019050919050565b60008060009054906101000a900473ffffffffffffffffffffffffffffffffffffffff1673ffffffffffffffffffffffffffffffffffffffff163373ffffffffffffffffffffffffffffffffffffffff1614610b1e576040517f08c379a000000000000000000000000000000000000000000000000000000000815260040180806020018281038252601e8152602001807f4f776e65643a2043616c6c6572206973206e6f7420746865206f776e6572000081525060200191505060405180910390fd5b60006002811115610b2b57fe5b600060149054906101000a900460ff166002811115610b4657fe5b14610b9c576040517f08c379a0000000000000000000000000000000000000000000000000000000008152600401808060200182810382526021815260200180610c5b6021913960400191505060405180910390fd5b6001600060146101000a81548160ff02191690836002811115610bbb57fe5b02179055503373ffffffffffffffffffffffffffffffffffffffff167fb69c8d69472936aa400ce372a28aabe319f1770c9cf6bdeadf0c399035cd5ebf600060149054906101000a900460ff1660405180826002811115610c1857fe5b815260200191505060405180910390a2600190509056fe4f776e65643a204f776e657273686970206973206e6f74207472616e7366657261626c6520746f2030783053746f707061626c653a20436f6e7472616374206973206e6f74207061757365644f776e65643a204f776e657273686970206973206e6f742073656c662d7472616e7366657261626c6553746f707061626c653a20436f6e7472616374206973206e6f742072756e6e696e67a2646970667358221220c31e3ca669e962414211c938e126f1eff5e2be5362141491016da20e7b23463164736f6c634300060c003353746f707061626c653a20496e697469616c20636f6e74726163742073746174652063616e2062652030202870617573656429206f722031202872756e6e696e6729",
  "immutableReferences": {},
  "source": "// SPDX-License-Identifier: Unlicense\n\n//B9lab ETH-SUB Ethereum Developer Subscription Course\n//>>> Stoppable <<<\n//\n//Last update: 03.12.2020\n\npragma solidity 0.6.12;\n\nimport \"./Owned.sol\";\n\n/**\n * @title Stoppable\n *  Pause and resume contracts\n */\ncontract Stoppable is Owned{\n    //Variable declaration\n    enum State{\n        paused,\n        running,\n        destroyed\n    }\n    State private state;\n\n    //Event\n    event LogStoppable(address indexed sender, State state);\n\n    //Modifier\n    modifier onlyIfRunning{\n        require(state == State.running, \"Stoppable: Contract is not running\");\n        _;\n    }\n\n    modifier onlyIfPaused{\n        require(state == State.paused, \"Stoppable: Contract is not paused\");\n        _;\n    }\n\n    //Initial function\n    constructor(State initialState) public{\n        require(uint(initialState) < uint(State.destroyed), \"Stoppable: Initial contract state can be 0 (paused) or 1 (running)\");\n        state = initialState;\n    }\n\n    //Retrieve contract state\n    function getState() public view returns(State contractState){\n        return state;\n    }\n\n    //Pause contract: No more interactions\n    function pauseContract() public onlyOwner onlyIfRunning returns(bool success){\n        state = State.paused;\n\n        emit LogStoppable(msg.sender, state);\n        return true;\n    }\n\n    //Resume contract: All interactions are allowed again\n    function resumeContract() public onlyOwner onlyIfPaused returns(bool success){\n        state = State.running;\n\n        emit LogStoppable(msg.sender, state);\n        return true;\n    }\n\n    //Kill switch for the whole contract, only if contract was deactivated at first\n    function destroyContract() public onlyOwner onlyIfPaused returns(bool success){\n        state = State.destroyed;\n\n        emit LogStoppable(msg.sender, state);\n\n        //EIP 1884 (https://eips.ethereum.org/EIPS/eip-1884) within Istanbul hard fork\n        //Avoidance of Solidity's transfer() or send() methods\n        (success, ) = msg.sender.call{value: address(this).balance}(\"\");\n        require(success, \"Transfer failed\");\n    }\n}",
  "sourcePath": "/home/niels/ITstuff/ETH-SUB/DAPPS/project_remittance/contracts/Stoppable.sol",
  "compiler": {
    "name": "solc",
    "version": "0.6.12+commit.27d51765.Emscripten.clang"
  },
  "schemaVersion": "3.2.5",
  "updatedAt": "2020-12-04T21:21:38.113Z",
  "devdoc": {
    "kind": "dev",
    "methods": {},
    "title": "Stoppable  Pause and resume contracts",
    "version": 1
  },
  "userdoc": {
    "kind": "user",
    "methods": {},
    "version": 1
  }
}